:020000040008F2
:04000000004814ABF5
:20000400761BFFF0E20000BDE63006002942561676256F00761BFFF0E20000BDE630060085
:200014002942561676256F00761BFFF0E20000BDE63006002942561676256F00761BFFF04F
:20002400E20000BDE63006002942561676256F00761BFFF0E20000BDE6300600294256160E
:2000340076256F00761BFFF0E20000BDE63006002942561676256F00761BFFF0E20000BD67
:20004400E63006002942561676256F00761BFFF0E20000BDE63006002942561676256F0083
:20005400761BFFF0E20000BDE63006002942561676256F00761BFFF0E20000BDE630060035
:200064002942561676256F00761BFFF0E20000BDE63006002942561676256F00761BFFF0FF
:20007400E20000BDE63006002942561676256F00761BFFF0E20000BDE630060029425616BE
:2000840076256F00761BFFF0E20000BDE63006002942561676256F00761BFFF0E20000BD17
:20009400E63006002942561676256F00761BFFF0E20000BDE63006002942561676256F0033
:2000A400761BFFF0E20000BDE63006002942561676256F00761BFFF0E20000BDE6300600E5
:2000B4002942561676256F00761BFFF0E20000BDE63006002942561676256F00761BFFF0AF
:2000C400E20000BDE63006002942561676256F00761BFFF0E20000BDE6300600294256166E
:2000D40076256F00761BFFF0E20000BDE63006002942561676256F00761BFFF0E20000BDC7
:2000E400E63006002942561676256F00761BFFF0E20000BDE63006002942561676256F00E3
:2000F400761BFFF0E20000BDE63006002942561676256F00761BFFF0E20000BDE630060095
:200104002942561676256F00761BFFF0E20000BDE63006002942561676256F00761BFFF05E
:20011400E20000BDE63006002942561676256F00761BFFF0E20000BDE6300600294256161D
:2001240076256F00761BFFF0E20000BDE63006002942561676256F00761BFFF0E20000BD76
:20013400E63006002942561676256F00761BFFF0E20000BDE63006002942561676256F0092
:20014400761BFFF0E20000BDE63006002942561676256F00761BFFF0E20000BDE630060044
:200154002942561676256F00761BFFF0E20000BDE63006002942561676256F00761BFFF00E
:20016400E20000BDE63006002942561676256F00761BFFF0E20000BDE630060029425616CD
:2001740076256F00761BFFF0E20000BDE63006002942561676256F00761BFFF0E20000BD26
:20018400E63006002942561676256F00761BFFF0E20000BDE63006002942561676256F0042
:20019400761BFFF0E20000BDE63006002942561676256F00761BFFF0E20000BDE6300600F4
:2001A4002942561676256F00761BFFF0E20000BDE63006002942561676256F00761BFFF0BE
:2001B400E20000BDE63006002942561676256F00761BFFF0E20000BDE6300600294256167D
:2001C40076256F00761BFFF0E20000BDE63006002942561676256F00761BFFF0E20000BDD6
:2001D400E63006002942561676256F00761BFFF0E20000BDE63006002942561676256F00F2
:2001E400761BFFF0E20000BDE63006002942561676256F00761BFFF0E20000BDE6300600A4
:2001F4002942561676256F00761BFFF0E20000BDE63006002942561676256F00761BFFF06E
:20020400E20000BDE63006002942561676256F00761BFFF0E20000BDE6300600294256162C
:2002140076256F00761BFFF0E20000BDE63006002942561676256F00761BFFF0E20000BD85
:20022400E63006002942561676256F00761BFFF0E20000BDE63006002942561676256F00A1
:20023400761BFFF0E20000BDE63006002942561676256F00761BFFF0E20000BDE630060053
:200244002942561676256F00761BFFF0E20000BDE63006002942561676256F00761BFFF01D
:20025400E20000BDE63006002942561676256F00761BFFF0E20000BDE630060029425616DC
:2002640076256F00761BFFF0E20000BDE63006002942561676256F00761BFFF0E20000BD35
:20027400E63006002942561676256F00761BFFF0E20000BDE63006002942561676256F0051
:20028400761BFFF0E20000BDE63006002942561676256F00761BFFF0E20000BDE630060003
:200294002942561676256F00761BFFF0E20000BDE63006002942561676256F00761BFFF0CD
:2002A400E20000BDE63006002942561676256F00761BFFF0E20000BDE6300600294256168C
:2002B40076256F00761BFFF0E20000BDE63006002942561676256F00761BFFF0E20000BDE5
:2002C400E63006002942561676256F00761BFFF0E20000BDE63006002942561676256F0001
:2002D400761BFFF0E20000BDE63006002942561676256F00761BFFF0E20000BDE6300600B3
:2002E4002942561676256F00761BFFF0E20000BDE63006002942561676256F00761BFFF07D
:2002F400E20000BDE63006002942561676256F00761BFFF0E20000BDE6300600294256163C
:2003040076256F00761BFFF0E20000BDE63006002942561676256F00761BFFF0E20000BD94
:20031400E63006002942561676256F00761BFFF0E20000BDE63006002942561676256F00B0
:20032400761BFFF0E20000BDE63006002942561676256F00761BFFF0E20000BDE630060062
:200334002942561676256F00761BFFF0E20000BDE63006002942561676256F00761BFFF02C
:20034400E20000BDE63006002942561676256F00761BFFF0E20000BDE630060029425616EB
:2003540076256F00761BFFF0E20000BDE63006002942561676256F00761BFFF0E20000BD44
:20036400E63006002942561676256F00761BFFF0E20000BDE63006002942561676256F0060
:20037400761BFFF0E20000BDE63006002942561676256F00761BFFF0E20000BDE630060012
:200384002942561676256F00761BFFF0E20000BDE63006002942561676256F00761BFFF0DC
:20039400E20000BDE63006002942561676256F00761BFFF0E20000BDE6300600294256169B
:2003A40076256F00761BFFF0E20000BDE63006002942561676256F00761BFFF0E20000BDF4
:2003B400E63006002942561676256F00761BFFF0E20000BDE63006002942561676256F0010
:2003C400761BFFF0E20000BDE63006002942561676256F00761BFFF0E20000BDE6300600C2
:2003D4002942561676256F00761BFFF0E20000BDE63006002942561676256F00761BFFF08C
:2003E400E20000BDE63006002942561676256F00761BFFF0E20000BDE6300600294256164B
:2003F40076256F00761BFFF0E20000BDE63006002942561676256F00761BFFF0E20000BDA4
:20040400E63006002942561676256F00761BFFF0E20000BDE63006002942561676256F00BF
:20041400761BFFF0E20000BDE63006002942561676256F00761BFFF0E20000BDE630060071
:200424002942561676256F00761BFFF0E20000BDE63006002942561676256F00761BFFF03B
:20043400E20000BDE63006002942561676256F00761BFFF0E20000BDE630060029425616FA
:2004440076256F00761BFFF0E20000BDE63006002942561676256F00761BFFF0E20000BD53
:20045400E63006002942561676256F00761BFFF0E20000BDE63006002942561676256F006F
:20046400761BFFF0E20000BDE63006002942561676256F00761BFFF0E20000BDE630060021
:200474002942561676256F00761BFFF0E20000BDE63006002942561676256F00761BFFF0EB
:20048400E20000BDE63006002942561676256F00761BFFF0E20000BDE630060029425616AA
:2004940076256F00761BFFF0E20000BDE63006002942561676256F00761BFFF0E20000BD03
:2004A400E63006002942561676256F00761BFFF0E20000BDE63006002942561676256F001F
:2004B400761BFFF0E20000BDE63006002942561676256F00761BFFF0E20000BDE6300600D1
:2004C4002942561676256F00761BFFF0E20000BDE63006002942561676256F00761BFFF09B
:2004D400E20000BDE63006002942561676256F00761BFFF0E20000BDE6300600294256165A
:2004E40076256F00761BFFF0E20000BDE63006002942561676256F00761BFFF0E20000BDB3
:2004F400E63006002942561676256F00761BFFF0E20000BDE63006002942561676256F00CF
:20050400761BFFF0E20000BDE63006002942561676256F00761BFFF0E20000BDE630060080
:200514002942561676256F00761BFFF0E20000BDE63006002942561676256F00761BFFF04A
:20052400E20000BDE63006002942561676256F00761BFFF0E20000BDE63006002942561609
:2005340076256F00761BFFF0E20000BDE63006002942561676256F00761BFFF0E20000BD62
:20054400E63006002942561676256F00761BFFF0E20000BDE63006002942561676256F007E
:20055400761BFFF0E20000BDE63006002942561676256F00761BFFF0E20000BDE630060030
:200564002942561676256F00761BFFF0E20000BDE63006002942561676256F00761BFFF0FA
:20057400E20000BDE630060029425616E28000BEFFF176177602761BFFF0E20000BDE6308B
:2005840006002942561676256F00FE067D451E44A842761F1400CE08CF09FF58610456BF36
:2005940001466F0C924552016004061696C46F055202600306161EC42B469246FE86000685
:2005A400FE047C431E42761F1400064ACA42CB41CE08CF09FF58610456BF01446F169243E7
:2005B4005201600402071E106F055202600302081E1006481E125CAD0642DC8ACA04CAC445
:2005C400CB05CBCC1E042B449244FE840006FE047C431E42761F1400064CCA42CB41CE08B7
:2005D400CF09FF58610456BF01446F1D92435201600902011E1006481E12064A91001E143A
:2005E4006F095202600702021E1006481E12064A1E145CAD0642CA04DC8CCB05CAC4CBCC16
:2005F4001E042B449244FE840006FE047C431E42761F1400064CCA42CB41CE08CF09FF58BF
:20060400610456BF01446F1D92435201600902091E1006481E12064A91001E146F09520264
:200614006007020A1E1006481E12064A1E145CAD0642CA04DC8CCB05CAC4CBCC1E042B4418
:200624009244FE840006FE047C431E42761F1400064CCA42CB41CE08CF09FF58610456BFA5
:2006340001446F1D92435201600902031E1006481E12064A91001E146F0952026007020447
:200644001E1006481E12064A1E145CAD0642CA04DC8CCB05CAC4CBCC1E042B449244FE8403
:200654000006FE047C431E42761F1400064CCA42CB41CE08CF09FF58610456BF01446F1DFC
:20066400924352016009020B1E1006481E12064A91001E146F0952026007020C1E1006485C
:200674001E12064A1E145CAD0642CA04DC8CCB05CAC4CBCC1E042B449244FE840006FE0447
:200684007C431E42761F1400064CCA42CB41CE08CF09FF58610456BF01446F1892435201B1
:20069400600402051E106F055202600302061E1006481E12064A1E145CAD0642DC8CCA04C5
:2006A400CAC4CB05CBCC1E042B449244FE840006FE047C431E42761F1400064CCA42CB411E
:2006B400CE08CF09FF58610456BF01446F18924352016004020D1E106F0552026003020ED7
:2006C4001E1006481E12064A1E145CAD0642DC8CCA04CAC4CB05CBCC1E042B449244FE8483
:2006D4000006FE041E42761F1400064CCA42CB41CE08CF09FF58610456BF01436F10021235
:2006E4001E1006481E12064A1E145CAD0642DC8CCA04CAC4CB05CBCC1E042B439243FE8465
:2006F4000006FE0C7C4B1E488F05F444A84A924B600D064A1E42D40206501E4406521E46A7
:200704000648764805F9964C6F0E5201600C064A1E42D40206501E4406521E4606487648A7
:200714000655964C924CFE8C0006FE061E420642761F1400CE02CF03FF5861FA02070F1841
:20072400600D061A1E468A460EC41E1E064ACA00CA42CB01CB411E006F1302080F18600DAA
:20073400061A1E448A4406C41E1E064ACA00CA42CB01CB411E006F04064298009901FE86C2
:200744000006FE061E420642761F1400CE02CF03FF5861FA02010F186010061A1E448A44FC
:20075400061C98C48A440EC41E1E064ACA00CA42CB01CB411E006F1702020F186011061ACD
:200764001E468A46061C98C499CC8A4606C41E1E064ACA00CA42CB01CB411E006F040642B1
:2007740098009901FE860006FE061E420642761F1400CE02CF03FF5861FA762202090F1836
:200784006010061A1E448A44061C98C48A440EC41E1E064ACA00CA42CB01CB411E006F1799
:20079400020A0F186011061A1E468A46061C98C499CC8A4606C41E1E064ACA00CA42CB01A2
:2007A400CB411E006F04064298009901761AFE86FF690006FE061E420642761F1400CE0277
:2007B400CF03FF5861FA02030F186011061A1E448A44061CFF5EC0C48A440EC41E1E064A85
:2007C400CA00CA42CB01CB411E006F1802040F186012061A1E468A46061CFF55C0C4C1CC48
:2007D4008A4606C41E1E064ACA00CA42CB01CB411E006F04064298009901FE860006FE0698
:2007E4001E420642761F1400CE02CF03FF5861FA7622020B0F186011061A1E448A44061CA1
:2007F400FF5EC0C48A440EC41E1E064ACA00CA42CB01CB411E006F18020C0F186012061ABE
:200804001E468A46061CFF55C0C4C1CC8A4606C41E1E064ACA00CA42CB01CB411E006F04B4
:20081400064298009901761AFE86FF690006FE061E420642761F1400CE02CF03FF5861FA1F
:2008240002050F186010061A1E468A46061C96C48A460EC41E1E064ACA00CA42CB01CB416A
:200834001E006F1602060F186010061A1E448A44061C1EC48A4406C41E1E064ACA00CA4214
:20084400CB01CB411E006F04064298009901FE860006FE061E420642761F1400CE02CF0330
:20085400FF5861FA7622020D0F186010061A1E468A46061C96C48A460EC41E1E064ACA00CC
:20086400CA42CB01CB411E006F16020E0F186010061A1E448A44061C1EC48A4406C41E1E1E
:20087400064ACA00CA42CB01CB411E006F04064298009901761AFE86FF690006FE041E4277
:200884000642761F1400CE02CF03FF5861FA02120F186010061A1E44C544061C3E67761F7D
:2008940014001E1E0648CA00CA42CB01CB411E006F04064298009901FE8400067700770077
:2008A400770077007700FF6900067648099D7622FF6976480D65761F174C1A3C00011A3C28
:2008B40000021A3C00041A3C00088F05D1B692C460098F007BDD761F1746A836A838A83A17
:2008C400A83C761F174C183CFFFE183CFFFD183CFFFB183CFFF7761A9A01D400D5019B147B
:2008D400FF69764809AB764808DA00067622761F174C1A2200011A2200041A2200081A22F7
:2008E40000101A2200201A2300011A2300041A2400011A2400021A2600011A2600021A26C7
:2008F40000041A2600081A2600101A2600201A2600401A2600801A2601001A2602001A26E5
:2009040004001A2608001A2800011A2800021A2800041A2800081A2800101A2800201A2A78
:2009140000011A2A00021A2A00041A2E00011A2E00021A3000011A3000021A3000041A3072
:2009240000081A3200011A3200021A3200041A3400011A3400021A3600011A3600021A382C
:2009340000011A3800021A3900011A3A00011A3C00011A3C00021A3C00041A3C00081A3EE6
:2009440000011A3E00021A3E00041A3E00081A3E00101A3E00201A3E00401A3E0080761F97
:20095400174D1A0300011A0300021A030004761AFF69000676220200761F174C1E221E24AF
:200964001E261E281E2A1E2E1E301E321E341E361E381E3A1E3C1E3E761F174D1E02761A04
:20097400FF69000676226F059A0228A85A5A1E24761F140092249003520260F7761AFF69F2
:20098400000676229A0028A85A5A761F14001E24761AFF6900067622761F01C0CC25FF00D0
:2009940050559625CC25FF0050AA9625761AFF690006FE027622761F01C092299007964129
:2009A400924150689629761AFF69FE820006FE067D447C4397429641761F174888419208E0
:2009B40090030EA90FA6601488429214907F0EA90FA6600E8843CC140300FFC70EA90FA677
:2009C400600788449222903F0EA90FA661628841920890030EA90FA661116F0A76480AE237
:2009D4006F0D76480AEC6F0A76480AF66F07924161F9520161FA520261F27622761F174818
:2009E40088429214907F0EA90FA660088843CC140300FFC70EA90FA66122180EFFFD1822E1
:2009F400FFC006141E4618A9FC8091001EA756030843CA4288A906A7AFA61E141A0E0001D5
:200A040092169001520160FD9242CD14FF80907FCAA8961492169001520160FD9244523F3A
:200A140061089C01CD22FFC0903FCAA896226F06CD22FFC0903FCAA896221A0E0002F66475
:200A240077009244CD22FFC0903FCAA89622761AFE86FF690006FE087D447C439742964106
:200A3400761F17488841920A90030EA90FA6601E8842921E907F0EA90FA660188843CC1EAA
:200A44000300FFC70EA90FA660118844922490030EA90FA661706F0A76480B026F0D76481C
:200A54000B0C6F0A76480B186F07924161F6520161F7520461F80E42761F17481EA6921E5F
:200A6400907F80A906A60FA7600A0E431EA6CC1E0300FFC780A906A60FA7612476221A24C0
:200A74000003061E1E4818A9FC8091001EA756030843CA4288A906A7AFA61E1E1A180001F0
:200A8400761A92209001520160FD76229242CD1EFF80907FCAA8961E761A9220900152019E
:200A940060FD56BF03456F1976229245CD24FFFC9CFF9003CAA89624761A0B450E441EA655
:200AA4009224900380A906A60FA761078F000256FF69A8A9764090370E44761F17481EA6CF
:200AB4009224900380A906A60FA760DF76221A180002761AFE88FF69000676220200761F90
:200AC40017C019011E10020019011E12020019011E14020019011E160200761F17C1190180
:200AD4001E10020019011E12020019011E14020019011E16761A9A00FF6900067622761F25
:200AE4001748CC08FFFC50029608761AFF6900067622761F17481808FFF71808FFFC761A89
:200AF400FF6900067622761F17481808FFEFCC08FFFC50019608761AFF6900067622761FF1
:200B040017481808FFF7180AFFFC761AFF6900067622761F17481808FFEFCC0AFFFC500185
:200B1400960A761AFF6900067622761F1748CC0AFFFC5002960A761AFF6900067622761FA9
:200B2400174D1836FFFC761A7621FF6900067622761F174DCC36FFFC50019636761A76219D
:200B3400FF6900067622761F174DCC36FFFC50029636761A761F174492259003520160FB0F
:200B44007622761F1748180EFFFD180EFFFE761A7621FF6900067622761F174D1A36000347
:200B5400761A761F174492259003600592249001520161F8FF697648095E7622761F174846
:200B6400180EFFFD180EFFFE761A7621FF690006FE0476220200761F01F01E3C761F01F194
:200B74001E3C761F01F21E3C761F01F31E3C761F01F41E3C761F01F51E3C8F007C00A84284
:200B84002B43924352C0670F2901BE00901F520661065603014307428AA9C2C40A4392436F
:200B940052C068F58F007F00A8422B4392435218670C2901BE005603014307428AA9C2C433
:200BA4000A439243521868F8761AFE84FF690006FE0E7C4B974A9649901F964C9249900F27
:200BB400964D92499007964E29018F007C009249FFC4FF84560301A9560100A4A842924ACE
:200BC40052036670924B520F69026F6C924CFFC3560301A9074209061E44924CFFC356030C
:200BD40001A9074209201E46924CFFC2560301A9074209281E487622FF6902038A44FF5AD3
:200BE4005603014D16A9563BFF55FF5A92ABC0C492AAC0CC0203FF5A8A465603014D16A930
:200BF400563BFF55FF5A92ABC0C492AAC0CC0203FF5A924BFFC188A98A46A9A989A6FF5A44
:200C04005603014D16A9563BFF5A92AB98C492AA98CC0203894B8A44FF5A5603014D16A9E1
:200C1400563BFF5A92AB98C492AA98CC0203FF5A8A485603024E16A9563BFF55FF5A92AB8A
:200C2400C0C492AAC0CC0203894A8A48FF5A5603024E16A9563BFF5A92AB98C492AA98CCD6
:200C3400761AFE8EFF690006FE187C5797569655901F0EA91E4E9255900F0EA91E502D4E5D
:200C44000201563B1E5229018F007C009255FFC4FF84560301A9560100A4A842020A0742ED
:200C54001E44020C07421E46021007421E48021207421E4A064EFF43FF30074209021E4C5A
:200C640076228A440652FF55C0C4C1CC92565201601F8A44065298C499CC42576C068A4ACD
:200C7400065298C499CC6F068A4A0652FF55C0C4C1CC9257900561078A460652FF55C0C45B
:200C8400C1CC6F238A46065298C499CC6F1E8A440652FF55C0C4C1CC40576C078A460652FE
:200C9400FF55C0C4C1CC6F058A46065298C499CC41576C068A48065298C499CC6F068A4842
:200CA4000652FF55C0C4C1CC92579030FFC30EA91E54FF6902038A4CFF5A5603015016A9DA
:200CB400563BFF55FF5A92ABC0C492AAC0CC0654610CA354560301508A4C16A9563BFF5A72
:200CC40092AB98C492AA98CC761AFE98FF690006FE0A974A9649901F0EA91E462D4602013B
:200CD400563B1E4829018F007C009249FFC4FF84560301A9560100A4A842023C07421E44E2
:200CE4007622924A61068A44064898C499CC6F068A440648FF55C0C4C1CC761AFE8AFF69C2
:200CF4000006FE0296417622761F01E49603761AFF69FE820006FE0296417622761F01E4F1
:200D04009604761AFF69FE820006FE0296417622761F01E49605761AFF69FE820006FE02B5
:200D140096417622761F01E4960C761AFF69FE820006FE0296417622761F01E4960D761A9A
:200D2400FF69FE820006762228A9FFFF28A87FFF761F01F21E0C761F01F302081E0C761F08
:200D340001F402201E0C3B01761F01F5FF29FFFF1E0C761AFF69000676228F3FFC1C761F36
:200D440001F0A80C28A90E0028A8FC00761F01F11E0C28A943E728A81EF0761F01F21E0C03
:200D5400761F01F302081E0C761F01F402001E0C3B01761F01F5FF29FFFF1E0C761AFF69FD
:200D64000006FE02761F17400608290118A907009100FF4796415205600476480D406F0694
:200D74005206600476480D276F01FE820006FE049643FFC429018F007F00FF81560301A962
:200D8400560100A4A8429243901F2DA906C456221EA692A690019644FE840006FE069746FE
:200D94009645FFC429018F007F00FF81560301A9560100A4A84202011EA69245901F2DA9DE
:200DA40006A6563B1E449246600406441EE46F0306441ED4FE86000629102920FF690006E0
:200DB4003B10FF6900068F4814B88F0814F3A0A9564100A4A8A98F00900076481459764050
:200DC40090000006FE0402001E4476228F080FEE761F0038A808761A8F03FFF4A8428342A6
:200DD4008F080E1AA8C583428F00801CA8D583428F00801AA8E583428F080E40A8F502089A
:200DE40007428AA98F480EA9A0C4761F00331A2210007623000129102920BE028F0002BC44
:200DF4006F04020107441E44761F140006209B00900F0FA66104A8A90F4466F4020B1E224E
:200E040002131E109A0128A880001E0402001E448F0001F4A8A90F446907020107441E44D2
:200E1400A8A90F4466FBFE84FF690006FE021E42CC4200FF290188A9064218A9FF00910068
:200E2400FF475CA99B0292A676480BACCC4200FF80A928AC0018064291FF0EA888A90642F0
:200E3400900018A8FF0056225CA993A692A776480C380201FE820006FE041E42924290FF10
:200E4400964376226F479243761F01E496006F599243761F01E496016F549243761F01E4C2
:200E540096026F4F9243761F01E496036F4A9243761F01E496046F459243761F01E4960500
:200E64006F409243761F01E496066F3B9243761F01E496076F369243761F01E496086F310C
:200E74009243761F01E496096F2C9243761F01E4960A6F279243761F01E4960B6F229243FA
:200E8400761F01E4960C6F1D9243761F01E4960D6F1806422901BE0D18A9FF009100FF4759
:200E94001EA719010FA6660D06A776C816DC1901FF30560100A724A9DF0124A81EA776203F
:200EA400761A0201FE84FF690006FE0A1E4291FF97472901064218A9FF009100FF479648EE
:200EB400924290FF96499248900F964A8F007A80560301499CFE560301A9560100A49248E5
:200EC400FFC3560301A907A41E4692499CFF8F007AA0560301A907A41E4476222BAAFF6936
:200ED4009247900327A98A465603014A16A9563BFF5A92AB98C492AA98CC8A4402012D4826
:200EE400563B98C499CC761A0201FF69FE8A00069A0076480EF400069A0176480EF4000652
:200EF400FE02964176480F7EFE8200067622761F174C1A2600011823FFFB761A761F01000A
:200F0400CC00C00050309600761F010128233A9818210000761F01002B041808FFA0180999
:200F1400FFAF761F0101282B1D4C282D0BB8282F3A9828313A9856BF960028020600180756
:200F2400FF3F1809FFF0761F0100180C7FC0761F01011811C0001813C000761F01029224AD
:200F340090801AA910099624CC26CCFC1AA911019626761F01001814F8007622761F0102C2
:200F44002B00CC04F0001AA90FFF9604180DFF81761F0103CC03FCF0500496031804FCF049
:200F54009A001AA9101093009600761F01021802F000761F0103CC07FFC0501096072B09D9
:200F64002B0B1808FFFE761F01001820FF5F1838FFF01838FF0F1838F0FF18380FFF183963
:200F7400FFF0761A7622761F174C1A230004761AFF690006761F02003B010624761F01017B
:200F8400FF4F9623E2C40123E801E118E8509209E80EB850E70000407700E68E0000770040
:200F94007700BFA90F12962BCD09FFFC761F020092269003761F0101CAA89609E2C4012357
:200FA400E801E118E8506809E80EB850E70000407700E68E000077007700BFA90F12962D58
:200FB400CD09FFF3761F020092269003761F0101FF81CAA89609E2C40123E801E118E85067
:200FC400B209E80EB850E70000407700E68E000077007700BFA90F12962FE2C40123E80153
:200FD400E118E850B209E80EB850E70000407700E68E000077007700BFA90F1296310006BD
:200FE4000006761F205A8A3402001EC476480EFA00060006761BFFF00005ABBDA8BDA0BDB5
:200FF400C2BDC3BDE20000BDE20300BDE20301BDE20302BDE20303BDE6300600FE04FF692B
:2010040029425616761F140006181E446F7F9A0028A880001E42020176480745FFEF008811
:201014009A0028A880001E420201764807456F7F9A0028A880001E420201764807AE6F77D1
:201024009A0028A880001E420201764807AE6F6F9A0028A880001E4202017648081B6F670A
:201034009A0028A880001E4202017648081B6F5F9A0028A880001E420201764807786F5750
:201044009A0028A880001E420201764807786F4F9A0028A880001E420201764807E36F4799
:201054009A0028A880001E420201764807E36F3F9A0028A880001E4202017648084D6F37D3
:201064009A0028A880001E4202017648084D6F2F9A0028A880001E420201764807196F27AD
:201074009A0028A880001E420201764807196F1F9A0028A880001E420201764808826F1788
:20108400761F020056BF01186F12BE111901C5440FA666F706A776C816B81901FF305601A9
:2010940000A724A9DF0124A81EA77620761F003356BF01218F00036E761F1400A8A90F1C9D
:2010A40060151A0000011A0180001A0600011A0780003B10761F00331822EFFFF605770092
:2010B400762FFFFE56BF01212910FE84E2AF03BEE2AF02BEE2AF01BEE2AF00BEE28000BE26
:2010C400C5BEC4BE83BE8ABE87BE00033B30FFF1761776027648099D7622FF6976480D6542
:2010D400761F174C1A3C00011A3C00021A3C00041A3C00088F05D1B692C460098F007BDDDC
:2010E400761F1746A836A838A83AA83C761F174C183CFFFE183CFFFD183CFFFB183CFFF745
:2010F400761A9A01D400D5019B14FF69764809AB7622761F174C1A2200011A2200041A2235
:2011040000081A2200101A2200201A2300011A2300041A240002020F761F17431E2C8F0083
:201114000FFFA816023F1E1802071E1A020F1E2002071E2202031E268F070000A8321E24A4
:201124001816FFFE761A7622761F1748182CFFF8761A3B1076260000762F0000FF697648E7
:2011340013E77648140F76480DC676481159764814907622761F01F002001E021E04761FAE
:2011440001F11E021E04761F01F21E021E04761F01F31E021E04761F01F41E021E04761F61
:2011540001F51E02761AFF6900068F000C00761F0200A8100200761F003019011E022B064B
:201164002B071A0400101A0400200200761F02001E128F000C08A8008F000C10A808761FC9
:20117400003019011E0A761F0030020019011E12761F00302B0E2B0F761F00302B162B1758
:20118400761F00301A0C0010761F00301A140010761F00301A0C0020761F00301A1400202F
:20119400761F020002001E021E0A0006FE08E2030146E2030044A84206441EE48A420646AB
:2011A4001EF4E2AF0044E2AF0146E70000087700E68800007700E20300488A428AC406488C
:2011B40019011ED48A428AC42BF48A428AC42BFC8A428AC41AE400108A428AC41AE4002035
:2011C4008A428AC418E4FBFF8A428AC418E4F7FF8A428AC41AE440008A4202001ED4FE8851
:2011D4000006761BFFF00005ABBDA8BDA0BDC2BDC3BDE20000BDE20300BDE20301BDE2037E
:2011E40002BDE20303BDE6300600FF692942561676480EEC7622761F01D01A040001761AC7
:2011F400761F003356BF0121E2AF03BEE2AF02BEE2AF01BEE2AF00BEE28000BEC5BEC4BE75
:2012040083BE8ABE87BE00033B30FFF176177602761BFFF00005ABBDA8BDA0BDC2BDC3BDEB
:20121400E20000BDE20300BDE20301BDE20302BDE20303BDE6300600FF6929425616764874
:201224000EF07622761F01D21A040001761A761F003356BF0121E2AF03BEE2AF02BEE2AFCA
:2012340001BEE2AF00BEE28000BEC5BEC4BE83BE8ABE87BE00033B30FFF176177602FE0632
:20124400E2030144E2030042291002001E468F000425761F0200A8A90F1C600E8F00036E61
:20125400761F0200A8A90F1A6107020107461E46A8A90F1A60FB3B108F000C00761F0200FB
:20126400A8100200761F003019011E022B062B071A0400101A0400200200761F02001E1219
:20127400E8024BA0E2AF0142FF69E80920008F008010E30208447648119A761F003018049E
:20128400FFEF7622761F00358F08134FA80C761A761F00331A22004076230001FF69FE86F3
:2012940000063B10761F00331A2200402910FF6900063B10761F00331822FFBFF605770081
:2012A400762FFFFE56BF01212910FF69000628AD0400FF69561F5616561AE61002002940B7
:2012B400761F00002902761B764814B352006142762228A916F828A800080901611B76C83C
:2012C40016F829046F0F9B0024A9DF016C04290424A8DF011EA6F7A1248606A781A10901E1
:2012D4001EA724A96303FF5C3B0459A9DF010009FFEC28A9FFFF28A8FFFF090161058F3FB7
:2012E400FFFF76481435761A764814B528A9FFFF28A8FFFF0901610E76FFFFFF6F06DF01F0
:2012F400C3BD1EA73E67C5BE24A9DF0124A8FF5860F776481477764813C00006FE0656BF4D
:2013040001452842BF95284133D6E8021A40E203004476480DB7764810CE761F205A8A34FB
:2013140002001EC476480FE5E2AF0042E2AF014476481243761F205A8A34BE0006C46002B0
:20132400BE017E45764812957648139E76480DB09245611B761F205A8A34B600BE0006C47A
:201334006002BE0192A66002B601761F02007F2D9A00932DBE00530061029A0152006002C7
:20134400BE017E45924560E776480FED76480DB49A00FE860006761BFFF00005ABBDA8BD3A
:20135400A0BDC2BDC3BDE20000BDE20300BDE20301BDE20302BDE20303BDE6300600FE02D4
:20136400FF6929425616761F0033922296411822FFBFF6057700762FFFFE56BF01217623FB
:2013740000012910FF69764813013B109241761F00339622FE82E2AF03BEE2AF02BEE2AF93
:2013840001BEE2AF00BEE28000BEC5BEC4BE83BE8ABE87BE00033B30FFF176177602FE02E5
:201394008F007029A842762256BF68C4761AFF69FE82000676228F0811D5761F0035A80049
:2013A400761A761F00331A220001762300017622761F00358F08120CA802761A761F0033E1
:2013B4001A2200027623000129102920FF6900060006000677006F00B2BD761F020059A957
:2013C400921E610D28ABFFFF28AAFFFF28A9FFFF28A8FFFF0FAB6103767FFFFF761F020005
:2013D400C5283E67761F0200062261041EA792A13E67761F0200062061031EA73E6776485D
:2013E40013BE8BBE00063B10761F00331820FFFE2B222B242B262B282B2A2B2C2B2E2B30E1
:2013F4002B322B342B362B382B232B252B272B292B2B2B2D2B2F2B312B332B352B372B392D
:20140400FF690006761F00331A2000012821FFFF2910FF690006FE068F0814F4A8428F004D
:201414000D00A844020607421E42020607441E4476222B45924552DD670D83448A42A0A9FB
:20142400C4840902A8421E44C2C50A45924552DD68F5761A761F00331A200001FF69FE8651
:201434000006B2BDAABDA2BDFE0882A4D1005ACB6F155CAD2901560303A107A3DC8809026E
:201444005CA483A9020876481459064261068A448346764814595ACBD90192A254A166EA3E
:20145400FE8882BE86BE8BBE00065200A8AB8EA4610880A9DF8188A780857F80000EFFFE18
:2014640088A90FA6610F5300610D9DFF5CA876BFFFFE92859680000EFFFE92859680000C0E
:20147400FFF8A9A4000628ABFFFF28AAFFFF28A9FFFF28A8FFFF0FAB6004BE00D4006F09A8
:2014840028ABFFFF28AAFFFFA9A488C409028AA992A67648130200067622761F1748CC2641
:20149400FFFC50019626761F01F01820FFF3CC06FFF350049606761AFF690006761F020037
:2014A400A82A0006761F0200A82800060006561F7622B9C028290068761A004812AB9A016E
:0414B4000006000628
:2014B8007622761F17E0CC1EFF005014961E1A2400011A200003761F17E61800FFFD1800B5
:2014C800FFFE761F17E0CC00F0FF1AA903009600761F17E61A0000021A000001761F17EC03
:2014D800CC00FFF0500A9600761AF6077700FF6900067622761F17E0CC1EFF005014961EB2
:1614E8001820FFFC1824FFFE761AFF690006190156C3FFFF00064D
:2014F400056800080568000805680008056800080568000805680008056800080568000830
:20150400056800080568000805680008056800080568000800040008000E0008001800083C
:2015140000220008002C00080036000800400008004A000800540008005E0008006800084F
:2015240000720008007C00080086000800900008009A000800A4000800AE000800B80008BF
:2015340000C2000800CC000800D6000800E0000800EA000800F4000800FE0008010800082E
:2015440001120008011C00080126000801300008013A000801440008014E00080158000897
:2015540001620008016C00080176000801800008018A000801940008019E000801A8000807
:2015640001B2000801BC000801C6000801D0000801DA000801E40008056800080568000885
:2015740001EE000801F800080202000805680008056800080568000805680008056800080A
:20158400020C00080216000802200008022A000802340008023E000802480008025200087F
:20159400025C00080266000802700008027A000802840008028E0008056800080568000853
:2015A4000298000802A2000802AC000802B6000802C0000802CA000802D4000802DE0008FF
:2015B40002E8000802F2000802FC00080306000803100008031A000803240008032E00086A
:2015C4000338000803420008034C00080356000803600008036A000803740008037E0008D7
:2015D4000388000803920008039C000803A6000803B0000803BA000803C4000803CE000847
:2015E40003D8000803E2000803EC0008056800080568000803F6000804000008040A000813
:2015F4000568000805680008056800080568000804140008041E0008042800080432000847
:20160400043C00080446000804500008045A00080568000805680008056800080568000896
:2016140004640008046E0008047800080482000805680008056800080568000805680008E6
:201624000568000805680008056800080568000805680008056800080568000805680008FE
:20163400048C0008049600080568000805680008056800080568000805680008056800089E
:2016440004A0000804AA000805680008056800080568000805680008056800080568000866
:201654000568000805680008056800080568000805680008056800080568000805680008CE
:2016640005680008056800080568000805680008056800080568000804B400080568000873
:2016740005680008056800080568000805680008056800080568000804BE00080568000859
:2016840004C8000804D2000804DC000804E6000804F0000804FA000805040008050E00088C
:2016940005680008056800080568000805680008056800080568000805680008056800088E
:2016A4000518000805220008052C00080536000805400008054A000805540008055E0008E6
:0416B400802E000084
:2016B800100B000810140008101C000810240008102C000810340008106C000810740008B3
:2016C800103C000810440008104C000810540008105C00081064000810840008108400085A
:2016D80010840008107C00080E4700080E4C00080E5100080E5600080E5B00080E60000849
:2016E8000E6500080E6A00080E6F00080E7400080E7900080E7E00080E8300080E8800087E
:2016F800FFFF801E00000001FFFE8020000000000000FFFE8022000000000000FFFE801A62
:20170800000000000000FFFE801C000000000000FFFF802C00000000FFFF802D00000000D3
:20171800FFFD8024000000003A980000FFFE8028000014AA0008FFFE802A000014AA000867
:0417280000000000BD
:00000001FF
